:020000040800F2
:10000000E88D0020550200081D440008513C0008FE
:1000100019440008790D0008214F00080000000075
:100020000000000000000000000000008147000800
:100030007110000800000000F1440008AD470008FE
:100040006F0200086F0200086F0200086F020008CC
:100050006F0200086F0200086F0200086F020008BC
:100060006F0200086F0200086F0200086F020008AC
:100070006F020008310E00086F0200083D0E0008F4
:100080006F0200086F0200086F0200086F0200088C
:100090007D0D00086F0200086F0200086F02000863
:1000A0006F0200086F0200086F0200086F0200086C
:1000B0006F020008994800086F0200086F020008EC
:1000C0006F0200086F0200086F0200086F0200084C
:1000D0006F020008E14E00086F0200086F0200087E
:1000E0006F0200086F0200086F0200086F0200082C
:1000F0006F0200086F0200086F0200086F0200081C
:100100006F0200086F0200086F0200086F0200080B
:100110006F0200086F0200086F0200086F020008FB
:100120006F020008490E0008550E00086F02000813
:100130006F0200086F0200086F0200086F020008DB
:10014000890D00086F0200086F0200086F020008A6
:100150006F0200086F0200086F020008ED4E0008F1
:100160006F0200086F0200086F0200086F020008AB
:100170006F0200086F0200086F0200080000000014
:100180006F0200086F02000800F002F800F052F859
:1001900014A696E8000CB244B344DA4501D100F04D
:1001A00049F8BAE80F000FA696E83000A5EB040561
:1001B00004EB0607AAEB0704A7F101074FEA1515A0
:1001C0004FEA3414A4F10104AC4201D300F032F838
:1001D00013F0010F18BFFB1A43F0010300F001F800
:1001E000DBE71847846A0000A46A0000103A24BFC5
:1001F00078C878C1FAD8520724BF30C830C144BF8C
:1002000004680C6070470000704700000023002461
:1002100000250026103A28BF78C1FBD8520728BF16
:1002200030C148BF0B6070471FB506F0D1FC1FBD41
:1002300010B510BD00F0E4F81146FFF7F5FF05F02A
:10024000E7F900F002F903B4FFF7F2FF03BC00F096
:1002500005F900000948804709480047FEE7FEE726
:10026000FEE7FEE7FEE7FEE7FEE7FEE7FEE7FEE766
:1002700004480549054A064B7047000085480008B8
:1002800089010008E8870020E88D0020E889002027
:10029000E889002053EA020C00F069802DE9F04B58
:1002A0004FF00006002B1FBFB3FA83F503FA05F4E5
:1002B00024FA05F65E4012BF1643B2FA82F502FA3E
:1002C00005F4C5F120051EBF22FA05FC44EA0C0422
:1002D000203556EA044C4FEA144418BF641C4FF012
:1002E00000084FF00009904271EB030C39D300294C
:1002F00019BFB1FA81F701FA07F6B0FA80F700FAF0
:1003000007F6C7F120071EBF20FA07FC46EA0C06D5
:100310002037B6FBF4FCA7EB0507103F07F01F0BD7
:10032000CBF120062CFA06F60CFA0BFB44BFB346C1
:100330000026202FA4BF5E464FF0000B5BEA060CA0
:1003400008BF4FF0010B19EB0B0948EB0608ABFB9C
:10035000027C06FB02CC0BFB03CCC01B71EB0C0137
:10036000C1E70B46024641464846BDE8F08B13B54F
:10037000084318BF4FF0FF300146AFF30080BDE8DF
:100380001C4070474FF0000200B513469446964655
:10039000203922BFA0E80C50A0E80C50B1F1200198
:1003A000BFF4F7AF090728BFA0E80C5048BF0CC046
:1003B0005DF804EB890028BF40F8042B08BF7047A4
:1003C00048BF20F8022B11F0804F18BF00F8012B16
:1003D000704770477047704710B500F009F8006823
:1003E00010BD10B5044600F003F8046010BD000015
:1003F000004870472800002000487047280000206F
:100400007546FFF7F9FFAE4605006946534620F0F2
:100410000700854618B020B5FFF72AFFBDE8204049
:100420004FF000064FF000074FF000084FF0000BB0
:10043000AC46ACE8C009ACE8C009ACE8C009ACE81F
:10044000C00921F007018D46704710B50446AFF38F
:1004500000802046BDE81040FFF7F5BE0149182096
:10046000ABBEFEE7260002007047000040F60040E9
:10047000C4F202004FF40071012201F091BD0000AE
:1004800040F60040C4F202004FF40071002201F077
:1004900087BD000040F60040C4F202004FF4006146
:1004A000012201F07DBD000040F60040C4F20200D0
:1004B0004FF40061002201F073BD000070B50446E6
:1004C000FFF7DEFF922000F03DFC922000F03AFCA6
:1004D000552000F037FC40F21825C2F20005E87004
:1004E000552000F02FFC2871552000F02BFC68717E
:1004F000552000F027FCA871552000F023FCE8717E
:10050000552000F01FFC2872FFF7B0FF40F20806EC
:10051000B5F90300C2F20006317800EE100A96ED3C
:10052000012AB8EEC01A94ED080A22EE011AC9B1E8
:1005300094ED0C2A21EE001A31EE421A84ED001AD5
:10054000B5F9050096ED011A03EE100AB8EEC33AAC
:1005500094ED0D2A21EE033A23EE003A33EE422ABF
:1005600010E000BF20EE011A84ED001AB5F9050075
:1005700096ED011A02EE100AB8EEC22A21EE022A06
:1005800020EE022A84ED012AB5F9070002EE100AD6
:10059000B8EEC22A21EE021A20EE010A84ED020A08
:1005A000FFF782FF802000F0CDFB552000F0CAFB52
:1005B000E870552000F0C6FB2871552000F0C2FB02
:1005C0006871552000F0BEFBA871552000F0BAFB01
:1005D000E871552000F0B6FB2872552000F0B2FB00
:1005E0006872552000F0AEFBA872FFF753FFE87861
:1005F0000F2845D1B5F90500317801EE100A96EDC6
:10060000020AB8EEC11A19B394ED092AB5F9070028
:1006100021EE001AB5F9091031EE421A02EE100A65
:1006200094ED0A3AB8EEC22A84ED031A01EE101ACC
:1006300094ED0B4A22EE002AB8EEC11A32EE432A9C
:1006400021EE000A84ED042A30EE440A16E000BFD1
:10065000B5F90700B5F9091020EE011A02EE100AEB
:1006600084ED031A01EE101AB8EEC22AB8EEC11AD0
:1006700020EE022A20EE010A84ED042A84ED050A08
:10068000FFF7FEFEA22000F05DFBA22000F05AFB67
:10069000552000F057FBE870552000F053FB2871FF
:1006A000FFF7E4FEE8782979C00040EA51114FF6DF
:1006B00000020023CFF6FF72B3EB902F18BF114357
:1006C00000EE101AB8EEC00AB4EE001A20EE010ACD
:1006D000B3EE071A30EE010A84ED070A70BD000080
:1006E0002DE9F04F81B02DED108B0C4640F27C21AE
:1006F00040F2182AC2F20001C2F2000A0025086086
:100700008AF8005004F00EFC9AF8001008438AF8AA
:10071000000004F0A5FC9AF80010002C40EA01004B
:100720008AF8000000F0CA8000F006FC8AED050A95
:1007300000F002FC9AED051AB2EE04AA30EE410A6E
:10074000B4EE4A0AF1EE10FA40F3E8804AF2F00003
:10075000CBF632204FF2B9314EF6B1720AF14803AE
:10076000CBF6AF21CBF6BB2207C348F27A40C4F2E6
:100770001D10CAF8600000209FED6F0AC4F220200F
:10078000CAF83C009FED6D1A9FED6D9A81EE000A4C
:100790009FED6CAA9FED6C8A002641F26F7B8AED7B
:1007A000110A00BFFFF76CFE922000F0CBFA9220F6
:1007B00000F0C8FA552000F0C5FA0446552000F0B4
:1007C000C1FA0546552000F0BDFA8146552000F0DB
:1007D000B9FA0746552000F0B5FA8046552000F0DA
:1007E000B1FA8246FFF742FE44EA052000B200EE6D
:1007F000100A40F20800C2F2000090ED011A40F227
:100800001820C2F20000B8EEC00A90ED112A21EEC5
:10081000000A90ED153A22EE000A80ED090A20EE5A
:10082000090A23EE0A3A33EE000A90ED164A90EDDB
:10083000175A80ED150A49EA072000B200EE100AA7
:10084000B8EEC00A21EE000A40F2182022EE000A9B
:10085000C2F2000080ED0A0A20EE090A24EE0A3AEC
:1008600033EE000A80ED160A48EA0A2000B200EED4
:10087000100AB8EEC00A40F2182421EE000AC2F2B3
:10088000000422EE000A84ED0B0A20EE090A25EE90
:100890000A1A31EE000A84ED170AB0EE480A00F099
:1008A000DFFA5E4506F10106FFF47CAF2078C0B2A6
:1008B000BDEC108B01B0BDE8F08F00BF4AF2F00133
:1008C00041F60F04CBF632214FF2B932C3F67F74F2
:1008D000CBF6AF224EF6B17346F60B77CAE911415B
:1008E0000AF14C01CBF6BB23C3F6996749F62A06F9
:1008F00048F27A4C8CC10021C3F69356C4F21D1CF9
:10090000C4F22021CAE91665CAF860C0CAF83C10D2
:10091000C0B2BDEC108B01B0BDE8F08F9FED0BCAEB
:10092000DFED0B8A9FED089AB6EE00BA0024B4EE14
:1009300000DAB3EE07EA19E07A841D41C3F51C41E1
:10094000CDCC4C3ECDCC4C3F6F12033A0080BB4522
:100950009A99193E00F0F0FA9AED051A30EE410A24
:10096000B4EE4A0AF1EE10FA3FF7F0AE9FEDF20A4C
:1009700000F076FA4FF0000BCAF86040CAE9124462
:10098000CAF85040FFF77CFD922000F0DBF992207E
:1009900000F0D8F9552000F0D5F98046552000F038
:1009A000D1F90546552000F0CDF98146552000F0DB
:1009B000C9F90746552000F0C5F90446552000F056
:1009C000C1F90646FFF752FD48EA052000B200EEE5
:1009D000100A40F20800C2F2000090ED011A49EA44
:1009E000072000B202EE100A44EA062000B2B8EE78
:1009F000C00AB8EEC22A03EE100A21EE000A21EE68
:100A0000022AB8EEC33A21EE031A22EE023A20EE91
:100A1000004A34EE033A21EE014A34EE033AF1EE95
:100A2000C39A8AED090A9AED180A8AED0A2A8AED14
:100A30000B1A30EE290A8AED180AFFF735FD8020DF
:100A400000F080F9552000F07DF90446552000F0B3
:100A500079F9552000F076F98146552000F072F9B9
:100A60000646552000F06EF98046552000F06AF9E0
:100A70000546552000F066F98246552000F062F9DF
:100A80000746FFF707FD0F2C3CD149EA062000B2CC
:100A900000EE100A40F20800C2F2000040F21821F5
:100AA00090ED021AC2F20001B8EEC00A91ED122ACE
:100AB00021EE000A48EA052081ED0C0A30EE020A18
:100AC00000B281ED120A00EE100A91ED133AB8EE71
:100AD000C00A21EE000A4AEA072081ED0D0A30EE35
:100AE000030A00B281ED130A00EE100A91ED144AD8
:100AF000B8EEC00A21EE000A81ED0E0A30EE040ABB
:100B000081ED140A40F2182AC2F2000ABBF1000F6C
:100B10003ED09AED0C0AB4EE6B0AF1EE10FAC8BFA3
:100B2000F0EE40BA9AED0D1AB4EE6F0AF1EE10FA3B
:100B3000B4EE6C1AB8BFF0EE40FAF1EE10FAC8BF8E
:100B4000F0EE41CA9AED0E0AB4EE6E1AF1EE10FA0A
:100B5000B4EE6A0AB8BFF0EE41EAF1EE10FAB4EE74
:100B60006D0AC8BFF0EE40AAF1EE10FAF4EE4F9A0B
:100B7000B8BFF0EE40DAF1EE10FAF4EE489AC8BFD2
:100B8000B0EE69FAF1EE10FAB8BFB0EE698A0FE084
:100B9000DAED0CBADAED0EAADAED0DCAF0EE6ADA89
:100BA000F0EE6CEAF0EE6BFAB0EE69FAB0EE698A3C
:100BB0003FEE480AB4EE4B0A8AED040A3BEEEF2AF8
:100BC0003CEEEE1AF1EE10FA3AEEED0A8AED062A44
:100BD0008AED071A8AED080A19DCB4EE682AF1EEEC
:100BE00010FA14DCB4EE681AF1EE10FA0FDCB4EE71
:100BF000680AF1EE10FA0ADCB0EE490A00F030F9AA
:100C000041F26F7083450BF1010BFFF4BBAE9AED1F
:100C1000120A9AED131A9AED182A9AED143A82EEF6
:100C20000C2A80EE0C0A81EE0C1A83EE0C3A8AED47
:100C3000182A8AED120A8AED131A8AED143AFFF780
:100C40001FFCA22000F07EF8A22000F07BF85520C7
:100C500000F078F80446552000F074F80546FFF7D8
:100C600005FCE000002440EA5511B4EB902F4FF64C
:100C70000000CFF6FF7018BF014300EE101AB8EE67
:100C8000C00A20EE0D0A30EE0E0A8AED0F0A9AED28
:100C9000040ABAF80C00B4EE4B0A0130F1EE10FA77
:100CA000AAF80C003FF756AE9AED180A9FED231AEA
:100CB00030EE011AB0EEC11AB4EE4B1AF1EE10FA92
:100CC0003FF748AE9AED061AB4EE681AF1EE10FA44
:100CD0003FF740AE9AED071AB4EE681AF1EE10FA3B
:100CE0003FF738AE9AED081AB4EE681AF1EE10FA32
:100CF0003FF730AE9AED121A9FED112AB0EEC11AED
:100D0000B4EE421AF1EE10FA3FF724AE9AED131A40
:100D1000B0EEC11AB4EE421AF1EE10FA3FF71AAE75
:100D20009AED141AB0EEC11AB4EE421AF1EE10FAAE
:100D30003FF710AE26E500BF0AD7A33BCDCC1CC1C0
:100D40000AD7233C80B582B040F27C21C2F2000178
:100D50000B688DF807004FF47A7C0DF107010DF157
:100D6000060218460123CDF800C001F0B5FD9DF83C
:100D7000060002B080BD0000FEE7000040F24050D7
:100D8000C2F2000000F0EEBA40F26850C2F2000079
:100D900000F0E8BA10B58AB040F2405400200121BA
:100DA000C2F200040690CDE90400CDE90200CDE9CD
:100DB0000000CDE9071109906946204600F0CAF904
:100DC000204600F04DFD2046022100F057F90AB000
:100DD00010BD0000B0B58AB04FF400740194002437
:100DE000CDE9034408240E9D05940C0A8DF81D10CE
:100DF000110A0DF1040C8DF81E10190A0CF1180ED1
:100E00008DF82010290A8DF81F208DF821308DF8DB
:100E1000221009AB614672468DF81C408DF82350B4
:100E200000F044F9002818BF01200AB0B0BD00004E
:100E300040F2B450C2F2000000F0E2BD40F2146093
:100E4000C2F2000000F0DCBD40F2D460C2F200004B
:100E500000F0D6BD40F27460C2F2000000F0D0BDD8
:100E600041F2040040F2D802CEF20000C2F20002C9
:100E7000016892ED001AB8EE411A21EE000A16E060
:100E80000268521A01EE102AB8EE411AB4EE410A75
:100E9000F1EE10FAD8BF70470268521A01EE102A1C
:100EA000B8EE411AB4EE410AF1EE10FA15DD02680F
:100EB000521A01EE102AB8EE411AB4EE410AF1EED0
:100EC00010FA0ADD0268521A01EE102AB8EE411A31
:100ED000B4EE410AF1EE10FAD2DC704710B582B0E0
:100EE00041F2040ECEF2000EDEF80010009140F246
:100EF000D801C2F20001DDF800C002680B68009C56
:100F00000460DEF80000019001980C69A04202D252
:100F1000C8680130C860ACEB020000EE100A01EEB8
:100F2000103A0198B8EE400AB8EE411A80EE010A74
:100F3000086102B010BD00002DE9F04782B041F217
:100F40000400CEF20000016840F2D80A0091006867
:100F5000C2F2000A01900199DAE9030200279142E6
:100F60003CBF0130CAF80C0001990023CAF81010E8
:100F7000009E4FF0FF31E0FB0167DAE90049DAF843
:100F80000880304639462246CAE90667FFF782F9EB
:100F90000546A0FB040201FB0421341A67EB01069D
:100FA000204631464A460023CAF82050FFF772F91E
:100FB00087B2AAF8240007FB09F0201A66F10001A5
:100FC00042460023FFF766F901EE107A9FED0D2AE5
:100FD00000EE105AB8EE411A81B2B8EE400A21EE86
:100FE000021A31EE000A01EE101A9FED072AB8EE40
:100FF000411A21EE021A31EE000AAAF8260002B0C8
:10100000BDE8F0876F12833ABD37863510B54EF6CE
:10101000FC5CCEF2000CDCF8002044F24023C0F26D
:101020000F0342F08072584344F6D353CCF80020AB
:1010300041F20002C1F26203CEF200024FF0000C56
:10104000A0FB033EC2F804C04DF683611368C4F2EE
:101050001B31A0FB011443F00101116040F2D801E3
:10106000C2F200014FEA9E12A30C81E80D1010BDE0
:101070007047000072B600BFFEE7000090F8202025
:10108000013A012A08D8006800F114020020136810
:1010900019431160704700BF00F1240201204FF492
:1010A00080211368194311607047000010B590F853
:1010B00020E0D0F800C0AEF1010EBEF1010FDCF867
:1010C00008E011D81EF0E05F18D0CEF3016E0120C9
:1010D00000FA0EF018608B68D3B14868CC6844EA17
:1010E000C000034318E000BF00F1240101204FF4C9
:1010F00080220B681A430A6010BD00BF00F1240172
:1011000001204FF400120B681A430A6010BD00BFA3
:101110000868CB6843EA40530CEB0E10C0F88031EE
:101120000B69C0F88431097D012905D100F5C27130
:101130000B6843F480730B605168C0F88C1112681F
:1011400000F5C071C0F88821002001220B681A4305
:101150000A6010BD90F82020013A012A30D8B0B5BD
:1011600046F20060C4F20000026842F00102026030
:10117000026822F47C520260D1F814E0CC694A6A19
:101180000368012C43EA022202600EF01F024FF0B6
:10119000010303FA02F2C3696FEA020C23EA0203B5
:1011A000C36113D02CBBC36803EA0C03C360CB68D4
:1011B0008C8844EA034300EBCE0423640B4611E021
:1011C000416A41F48021416201207047C3681343A2
:1011D000C3600B688C8844EA034300EBCE042364AD
:1011E00001F10C038C681B8843EA044300EBCE0436
:1011F000636443688D6943EA0204D1F810E0096A28
:10120000002D08BF03EA0C0444604369BEF1000FDF
:1012100043EA020408BF03EA0C040129446102D135
:10122000C1691143C161016821F001010160002021
:10123000B0BD00007047000010B590F82040013CA0
:10124000012C7BD8D0F800C000290CBFDCF80C4082
:10125000DCF81040A4077BD00CEB011CDCF8B0419B
:101260000CF5D87E14F004049460DCF8B04119BF8A
:10127000E4085460640D1460DEF800400CF5DA7E7A
:1012800004F00204D460DCF8B44124075ABFDEF84D
:10129000004004F00F0408241461DEF80040002927
:1012A000C4F307249461DEF800404FEA144454610B
:1012B000DCF8B8211A70026802EB0112D2F8B821EA
:1012C0004FEA12225A70026802EB0112D2F8B821DA
:1012D0004FEA12429A70026802EB0112D2F8B8216A
:1012E0004FEA1262DA70026802EB0112D2F8BC21F6
:1012F0001A71026802EB0112D2F8BC214FEA1222E5
:101300005A71026802EB0112D2F8BC214FEA124274
:101310009A71026802EB0112D2F8BC214FEA126204
:10132000DA7100680CBF00F10C0100F1100100201F
:1013300020220B681A430A6010BD00BF00F124018F
:1013400001204FF480220B681A430A6010BD00BFD1
:1013500000F1240101204FF400120B681A430A60C7
:1013600010BD00002DE9F04F81B0044600684669C9
:10137000D0F804908768D0F80CB0D0F810A0D0F85E
:101380001880F10704D1002530071DD424E000BFE8
:10139000F90710D00121BA07816009D4780700F15C
:1013A000AF80380700F1B680204600F087FA02E0EF
:1013B000204600F085FA0025F80500F18780F80343
:1013C00000F1B180300707D51BF0100004D0206871
:1013D00045F400751021C160700708D51BF00800A6
:1013E00005D020680821C160204600F0F5F9B0075B
:1013F00006D52068C068800702D0204600F0EEF9CC
:10140000700607D51AF0100004D0206845F48065F6
:1014100010210161B00608D51AF0080005D0206837
:1014200008210161204600F015FAF00606D5206873
:101430000069800702D0204600F00EFAB00308D5FC
:1014400019F0100005D0206810214160204600F0FE
:1014500005FAF00308D519F0080005D02068082126
:101460004160204600F036FA300440F19B805FEA8C
:10147000497040F1948006F4807008EA10202843F7
:101480005FEA8871014648BF41F00201B20558BFCA
:1014900001465FEA48700D4648BF45F004057005F7
:1014A00058BF0D46300540F17A8018F0700000F00A
:1014B00076801038000905286CD8DFE800F0035961
:1014C0005D61656945F0080564E000BF20684FF480
:1014D0008071BA0581600BD4780515D438051DD408
:1014E000204600F0EFF9F8037FF56CAF1BE000BF7A
:1014F000204600F0E9F9F8037FF564AF13E000BF80
:101500004FF4006558E700BF05F50055F8037FF577
:1015100059AF08E04FF480554EE700BF05F5804510
:10152000F8037FF54FAF20684FF48031BA03816034
:101530000AD4780310D4380314D4204600F0C6F936
:1015400030073FF541AF47E7204600F0C1F93007CB
:101550003FF53AAF40E700BF05F5004530073FF5DE
:1015600033AF39E705F5803530073FF52DAF33E769
:1015700045F010050EE000BF45F020050AE000BF71
:1015800045F0400506E000BF45F0800502E000BFE1
:1015900045F480752068816921F0700181612068BF
:1015A0000421416055B1606A40EA0501204661624C
:1015B00001B0BDE8F04FFFF73DBE00BF01B0BDE890
:1015C000F08F0000002804BF01207047B0B504462A
:1015D00090F8200010B9204600F06EF820680168ED
:1015E00041F00101016000F0E1FC0546206841681E
:1015F000C90705D100F0DAFC401B0B28F6D310E038
:10160000016821F00201016000F0D0FC054600BF36
:101610002068416889070DD500F0C8FC401B0B28E5
:10162000F6D3606A052140F400306062012084F83E
:101630002010B0BD217E0268012922F0800208BF7F
:1016400080320260617E0268012922F0400208BFF8
:1016500040320260A17E0268012922F0200208BF08
:1016600020320260E17E0268012922F0100218BFD8
:1016700010320260217F0268012922F0080208BFAF
:1016800008320260617F0268012922F0040208BF6B
:1016900004320260D4E901C2D4E9033561691A4316
:1016A0002A431143ACF101021143C1610020012121
:1016B000606284F82010B0BD10B586B0006846F6B0
:1016C0000002C4F2000200219042CDE90411CDE9EC
:1016D0000211019134D046F20041C4F20001884267
:1016E00077D140F2A841C2F200010A6843F64000F7
:1016F000C4F20200531C0B6052B900210091016832
:1017000041F000710160016801F0007100910099E1
:101710000021009150F8101C142441F0080140F8F9
:10172000101C50F8100C032100F0080000900098E5
:1017300040F20040C4F2020000F5006035E000BF56
:1017400043F64000C4F202000091016841F080615C
:101750000160016801F080610091009940F2A841A8
:10176000C2F200010A68531C0B6052B900210091BB
:10177000016841F000710160016801F000710091A1
:1017800000990021009150F8101C402441F0020102
:1017900040F8101C50F8100C602100F0020000907E
:1017A000009840F20040C4F202000191022102912F
:1017B00000210391032104910921059101A900F061
:1017C00017FB20460521002200F0B2FC204600F065
:1017D0009DFC06B010BD00007047000010B540F23F
:1017E0009054C2F2000404F11C0300212246FFF7CA
:1017F00023FD2068A0F2052104290BD3A0F20121CA
:10180000032988BF10BD013840F6C01EC0B2C2F225
:10181000000E05E0FB3040F6603EC0B2C2F2000EA2
:10182000A28B4FF0680C12BA00FB0CF3120C3EF8BE
:1018300003102EF80320E28B10FB0CE0018111BA9B
:10184000228C090C418011BA94F82220090C818065
:10185000827110BD704700007047000070470000A3
:10186000B0B5044690F8200001281DD1022084F86C
:1018700020002068016821F00101016000F096FB62
:10188000054600BF20684068C00713D000F08EFBFB
:10189000401B0B28F6D3606A40F4003060620520DC
:1018A00084F820000120B0BD606A40F4002060622E
:1018B0000120B0BD00206062B0BD00007047000094
:1018C000704700007047000070470000704700003C
:1018D0007047000070470000B0B5D0F808E0BEF1D6
:1018E000800F05D14FF4807141650120B0BD00BF6C
:1018F00090F834C0BCF1010F04BF0220B0BD4FF01E
:10190000010C80F834C090F835C0BCF1010F4FF0E5
:10191000020C18D180F835C00068049DD0F800C0D2
:10192000BEF1400F4CF48024046003610B46456017
:1019300004BF13460A468360C26001684FF0000C82
:1019400041F0010101606046B0BD000070B5866DD8
:10195000044600F02BFB94F83510022928D10546E7
:101960002068216C026822F016020260426922F0AF
:101970008002426109B9A16C19B1016821F0080126
:101980000160016821F00101016000BF206800686A
:10199000C00715D000F00AFB401B0628F6D3202014
:1019A0006065032084F83500002184F8341070BD90
:1019B000802060650120002184F8341070BD00BFD4
:1019C000E06D3F2101FA00F0B060012084F835009D
:1019D0000020002184F8341070BD000090F835100C
:1019E000022909D1052180F835100068016821F02D
:1019F000010101600020704780214165012070478E
:101A0000F0B581B004460020009040F21400C2F20C
:101A100000000268D4E9166048F2B513376808215F
:101A2000C1F64E3381403942A2FB03250CD0226817
:101A300013685B0708D5136823F004031360B160D3
:101A4000616D41F00101616501218140394208D099
:101A500022685269120604D5B160616D41F002013D
:101A6000616504218140394208D0226812689207DA
:101A700004D5B160616D41F00401616510218140C0
:101A8000394217D020680268120713D5B160026886
:101A90000168520308D4C90508D4016821F008017F
:101AA0000160216C21B905E008033FD4216C09B124
:101AB00020468847E16D202000FA01F23A4241D0E9
:101AC00020680368DB063DD5B26094F835300268C3
:101AD000052B1BD122F016020260426922F080021F
:101AE0004261226C0AB9A26C1AB1026822F00802A3
:101AF00002603F208840B060012084F83500216DED
:101B00000020002984F8340052D157E001685203C4
:101B100010D4C90512D4016821F010010160012020
:101B200084F83500002084F8340007E0A16C002917
:101B3000BED1BFE7080301D4616C00E0E16B09B1DD
:101B400020468847606DC8B3606DC0072ED0052061
:101B500084F835002068A90A026822F001020260B8
:101B6000009A01328A4200921AD80268D20717D02E
:101B7000009A01328A42009212D80268D2070FD02E
:101B8000009A01328A4200920AD80268D20707D02E
:101B9000009A01328A42009202D80268D207DFD14D
:101BA000012084F83500002084F83400E16C29B16C
:101BB000204601B0BDE8F040084700BF01B0F0BDCD
:101BC0002DE9F041044600F0F1F9ECB105460220A0
:101BD00084F835000020216884F83400086820F07B
:101BE0000100086021680868C00711D000F0DEF924
:101BF000401B0528F6D9032520230320636584F8BC
:101C00003550BDE8F08100BF0120BDE8F08100BF84
:101C1000086848F23F02CFF21002D4E9013500EA29
:101C2000020C04F10C0898E8C10143EA0C032B43B1
:101C30001843D4E9072E304338431043626A40EA20
:101C40000E00042A40EA08031CD1206BD4E90A2EB6
:101C500040EA0E00184308604869BEF1000F20F00A
:101C6000030040EA020040F0040C11D0B8F5005F18
:101C700036D0B8F1000F45D1022A46D0012A3BD018
:101C800032B942E00B60486920F0070040EA020CDC
:101C900001F0F8004AF6AB221038CAF6AA22A0FBDF
:101CA00002231A0946F60C43C1F814C0C0F600031B
:101CB0009A5C40F2FF335F284FF03F0021EA0301B6
:101CC00000FA02F088BF0431C4E9161288600023CC
:101CD00001250020636584F83550BDE8F08100BF20
:101CE000032AD5D8012540230120DFE802F0030EA6
:101CF000030500BF82E700BFAEF1C070B0FA80F00C
:101D0000400904E0032A04D3C2D1CEF300600028C6
:101D1000BED0012540230120636584F83550BDE81D
:101D2000F081000090F834C0BCF1010F04BF022024
:101D3000704770B54FF0010C80F834C0D0F858E00F
:101D400090F835C0BCF1010F38D14FF0020C80F88B
:101D500035C04FF0000CC0F854C0D0F800C0846803
:101D6000056CC06DDCF80060402C26F48026CCF8B1
:101D70000060CCF804300B4604BF13460A463F21EE
:101D800001FA00F0CCF80830CCF80C20CEF80800AE
:101D9000DCF8000040F01600CCF800002DB1DCF8B3
:101DA000000040F00800CCF80000DCF8000040F033
:101DB0000100CCF80000002070BD00BF002180F8B9
:101DC0003410022070BD0000B0B5044600F0EEF8FB
:101DD000054640F20000C2F200000078611C18BF06
:101DE000044400BF00F0E2F8401BA042FAD3B0BDAB
:101DF0002DE9F04F82B000F13E4707F1FF778605ED
:101E000046EA972741F60046C4F20206082243F646
:101E1000004EB04208BF0722C4F2010E072F38BFA0
:101E20003A46002600274FF00008009209E000BF64
:101E300008F101080237B8F1100F06F1040600F0AE
:101E4000A3800D68012202FA08F415EA0409EFD014
:101E5000D1F804B003220BF0030CACF10105BA4039
:101E6000012D6FEA020A0FD88268CD6802EA0A02E1
:101E7000BD402A4382604268A243CBF3001404FAB7
:101E800008F42243426005E0BCF1030F02D14FF099
:101E9000030C1EE0C2688C6802EA0A02BC402243BE
:101EA000BCF1020FC26014D16FF0030202EA5802C3
:101EB0000244D2F820C006F01C040F230D69A34091
:101EC0002CEA0303A5402B431362D1F804B00BF0B6
:101ED000030C02680CFA07F302EA0A021A431BF425
:101EE000403F0260A4D0002243F644030192C4F2B2
:101EF00002031A684FF6084C42F480421A601A68CE
:101F0000CFF6FF7C02F480420192019A28F003028E
:101F1000724452F80C3006F00C050F24AC40A34379
:101F2000009C04FA05F52B4342F80C30DEF808203B
:101F30004B6842EA090543F60C4CDC0258BF22EA22
:101F40000905CEF80850C4F2010CDCF800209C0210
:101F500042EA090558BF22EA0905CCF80050DEF82C
:101F600004209C0342EA090558BF22EA0905CEF87D
:101F70000450DEF80020DB0342EA090558BF22EADC
:101F80000905CEF8005053E702B0BDE8F08F00001D
:101F9000426902EA0103914341EA034181617047CA
:101FA000002A08BF090481617047000048F28C5084
:101FB000C2F200000068704740F2000048F28C5105
:101FC000C2F20000C2F2000100780A681044086002
:101FD0007047000080B543F60040C4F2020001687B
:101FE00041F400710160016841F4806101600168A1
:101FF00041F480710160032000F0C6F80F2000F06A
:1020000005F800F061F8002080BD000070B586B0D2
:10201000002543F640010195C4F202010A68044616
:1020200042F002020A60096801A801F00201019170
:102030000199694600F06AF9049E002E18BF012636
:1020400000F084F94DF68361B040C4F21B31A0FB6F
:1020500001014FF0FF3000EB914140F28C7040F2F3
:102060000042C2F20000C4F2000240F2E733C0E9CD
:102070000021C0E902530561856100F0D9FD0546E4
:1020800010B1284606B070BD40F28C70C2F200005C
:1020900000F0FEFD05460028F3D11D2000F036F8C3
:1020A0000F2C0DD81D2021460022002500F040F8FD
:1020B00040F20400C2F200000460284606B070BD81
:1020C0000125284606B070BD82B0002043F64001CD
:1020D0000190C4F202014A6842F480424A604A68B0
:1020E00002F480420192019A00900868002240F0B8
:1020F0008050086008680F2100F080500090009820
:102100006FF0010002B000F013B80000002848BFD3
:10211000704700F01F01012202FA01F11C2202EABD
:10212000D0004EF20012CEF2000281507047000043
:1021300010B54EF60C5CCEF2000CDCF80030C3F3A8
:10214000022E8EF00704042C28BF0424BEF10303E2
:102150004FF0FF3E0EFA04F438BF0023A14399402C
:102160000EFA03F39A43114300F00F0200F16043AB
:102170000901043A03F564436244002848BF02F1B0
:102180000C03197010BD00004EF60C51CEF2000188
:102190000A684FF6FF031A4060F30A2242F080609B
:1021A00040F0FD7008607047002804BF01207047B0
:1021B0002DE9F04143F60808C4F202080446D8F8B5
:1021C000F8030D4600F00700884207D288F8F8535C
:1021D000D8F8F80300F00700A84277D120688107FB
:1021E00017D5410705D5D8F8001041F4E051C8F8DB
:1021F0000010010705D5D8F8001041F46041C8F877
:102200000010D8F80010A26821F0F0011143C8F8BE
:102210000010C00740D1D8F8F80300F00700A8422A
:1022200007D988F8F853D8F8F80300F00700A84257
:102230004CD12068410707D5D8F80010E26821F496
:10224000E0511143C8F80010000708D5D8F8000085
:10225000216920F4604040EAC100C8F8000000F0A5
:102260009DF8D8F8001046F6F432C1F30311C0F619
:102270000002515C40F2140220FA01F140F2040025
:10228000C2F200000068C2F200021160FFF7BEFE59
:102290000020BDE8F08100BF6068811E022907D2DE
:1022A00058F8081C89015CBF0120BDE8F08111E0ED
:1022B000012807D158F8081C89035CBF0120BDE83C
:1022C000F08107E058F8081C890703D40120BDE815
:1022D000F08100BFD8F8001021F003010843C8F8CE
:1022E0000000FFF763FE064641F28837D8F8000089
:1022F000616800F00C00B0EB810F8CD0FFF756FE48
:10230000801BB842F2D90320BDE8F0810F220260A1
:1023100043F60802C4F20202136803F003034360A9
:10232000136803F0F0038360136803F4E053C360A1
:10233000D2F800C04FF4E05303EADC030361D2F8A3
:10234000F80300F0070008607047000040F2140036
:1023500043F60801C2F20000C4F2020100680968F5
:1023600046F60442C1F38221C0F60002515CC84027
:102370007047000040F2140043F60801C2F200006A
:10238000C4F202010068096846F60442C1F3423112
:10239000C0F60002515CC8407047000010B543F61B
:1023A0000404C4F20204606800F00C0008280BD09A
:1023B000042819BF42F20040C0F2F40041F6003098
:1023C000C0F2B70010BD00BF206821682368490231
:1023D00041F60031C0F2B70100F03F02C3F38810AC
:1023E0005CBF42F20041C0F2F401A1FB00010023F6
:1023F000FDF750FF21680222C1F3014102EB4101C8
:10240000B0FBF1F010BD0000002804BF01207047B0
:102410002DE9F04182B00446007843F60006C0077B
:10242000C4F202060CD0B06800F00C00042840F0A2
:1024300081803068800303D56068002800F06A81DD
:10244000207880071BD5B06810F00C0F09D0B06859
:1024500000F00C00082840F087807068400200F10E
:1024600083803068800703D5E068012840F05281FE
:102470003068216920F0F80040EAC100306020781F
:10248000000713D4207840072AD4A569002D00F056
:102490003C81B06800F00C00082840F0A180012DBC
:1024A00040F01081012002B0BDE8F0816069002891
:1024B00040F20000C4F2472000F07E800121C0F805
:1024C000801EFFF773FD0546706F8007DAD4FFF7B3
:1024D0006DFD401B0228F7D9032002B0BDE8F08152
:1024E000306C5FEAC0080AD400200190306C40F0E4
:1024F00080503064306C00F080500190019847F2B9
:102500000007C4F200073868C00547D4386840F4B3
:1025100080703860FFF74AFD054600BF3868C00587
:102520003CD4FFF743FD401B0228F7D9032002B03B
:10253000BDE8F081B06800F00C00082803D1706895
:1025400040023FF576AF6068B0F5803F07D0B0F548
:10255000A02F40F09B80306840F4802030603068CD
:1025600040F4803030609BE0E06800285CD00020C0
:10257000C4F2472001210160FFF718FD054600BFA6
:10258000306880073FF574AFFFF710FD401B02284D
:10259000F6D9032002B0BDE8F08100BFA068012891
:1025A00005D0052854D1306F40F004003067306FFB
:1025B00040F00100306755E00021C0F8801EFFF7B1
:1025C000F5FC0546706F80077FF55CAFFFF7EEFC0A
:1025D000401B0228F6D9032002B0BDE8F08100BFFD
:1025E0000027C4F2472700203866FFF7DFFC022DE2
:1025F00005460DD13068800140F19080FFF7D6FC90
:10260000401B02284FF00300F4D902B0BDE8F0816E
:102610003068800179D5FFF7C9FC401B02284FF0D4
:102620000300F5D9F1E700BF0020C4F247200021E4
:102630000160FFF7BBFC0546306880077FF51FAFE0
:10264000FFF7B4FC401B02284FF00300F4D9DCE78D
:10265000316F002821F001013167316F21F0040151
:1026600031677DD0FFF7A2FC054641F2883700BFF5
:10267000306F800700F18680FFF798FC401BB8425E
:10268000F6D9032002B0BDE8F08100BF3168002810
:1026900021F480313160316821F4802131607BD0B8
:1026A000FFF784FC054600BF306880033FF5C8AEE5
:1026B000FFF77CFC401B6428F6D9032002B0BDE87C
:1026C000F08100BF7068E16900F480028A4221D184
:1026D000216A00F03F028A421CD147F6C071626A4B
:1026E0000140B1EB821F15D1A16A4FF6FF73C903F8
:1026F000994300F44032A1F580318A420AD1E16A5F
:1027000000F07060B0EB016F04D1002002B0BDE8B2
:10271000F08100BF012002B0BDE8F08104F11C058A
:102720002FCD084340EA8210D9034FF6FF72914340
:10273000A1F5803140EA05600843706001203866E9
:10274000FFF734FC044600BF30688001DDD4FFF79A
:102750002DFC001B02284FF00300F5D955E700BF00
:10276000FFF724FC054641F2883700BF306F800731
:1027700008D5FFF71BFC401BB8424FF00300F5D90A
:1027800043E700BFB8F1000F3FF57FAE306C20F09B
:102790008050306479E600BFFFF708FC054600BFB3
:1027A000306880037FF54CAEFFF700FC401B6428C7
:1027B0004FF00300F4D928E770B538B10446406AF9
:1027C00030B10020206104F1140007E0012070BD49
:1027D0006068B0F5827F03D004F11C000021016025
:1027E0000026A66294F8510020B9204684F8506073
:1027F00000F03CF8022084F8510094E80F0001F446
:102800008271056802F4044225F040050560114418
:1028100003F400622369114403F002026369114466
:1028200003F00102A369E569114403F40072114445
:1028300005F03802256A114405F08002A56A1143AB
:1028400005F4005211430160626A042101EA134158
:1028500002F0100211444160C16921F40061C161BC
:102860000120666584F85100304670BD016843F66A
:102870000000C4F20000814218BF704780B586B0E6
:10288000002143F630020191C4F20202136900F5FF
:10289000E63043F480431361136903F480430193EA
:1028A000019B0191136843F002031360126802F068
:1028B00002020192019A4FF4604201920222CDE994
:1028C0000221032104910521059101A9FFF790FA46
:1028D00006B0BDE8804070472DE9F04383B01E4646
:1028E00015460F460446FFF761FB94F851108146E8
:1028F000012909D1002F4FF0010018BF002D0FD181
:1029000003B0BDE8F08300BF6068B0F5827F0DD1F1
:1029100004294FF00200F3D1A1680029EAD0EFE7C3
:10292000002EEDD094F85000012803D1022003B00E
:10293000BDE8F083012084F8500094F85100002194
:1029400004281CBF052084F851006165A563E68753
:10295000A6872763E6862068A686216461640168ED
:10296000490603D4016841F0400101606168731EAB
:10297000E268B1FA81F1B3FA83F3DDF828804909FE
:102980005B09B2F5006F41EA030165D131B137F857
:10299000021BC1602763E08E0138E086012518F133
:1029A000010032D102E000BFFFF700FBE08E18B952
:1029B000E08F002800F0B8802068816889070CD576
:1029C000E18E51B1012D08D1216B002531F8022B88
:1029D000C2602163E18E0139E1868168C907E3D0D5
:1029E000E18F0029E0D0C068A16B012521F8020B1E
:1029F000A163E08F0138E087D6E700BFFFF7D6FA82
:102A0000A0EB0900404580F0A580E08E18B9E08F6A
:102A1000002800F089802068816889070CD5E18E44
:102A200051B1012D08D1216B002531F8022BC26074
:102A30002163E18E0139E1868168C907DED0E18F2B
:102A40000029DBD0C068A16B012521F8020BA1632E
:102A5000E08F0138E087D1E739B139780173206B15
:102A600001302063E08E0138E086012518F1010075
:102A700032D101E0FFF79AFAE08E10B9E08F00281A
:102A800052D02068816889070ED5E18E61B1012D91
:102A90000AD1216B002509780173216B206801316F
:102AA0002163E18E0139E1868168C907E2D0E18FB7
:102AB0000029DFD0C068A16B01250870A06B013030
:102AC000A063E08F0138E087D4E700BFFFF76EFA1C
:102AD000A0EB090040453DD2E08E08B9E08F18B365
:102AE0002068816889070ED5E18E61B1012D0AD178
:102AF000216B002509780173216B20680131216366
:102B0000E18E0139E1868168C907DFD0E18F0029B4
:102B1000DCD0C068A16B01250870A06B0130A063F8
:102B2000E08F0138E087D1E72046022101224346A9
:102B3000CDF8009001F08EFDB0B1606D40F0200046
:102B4000606520206065002084F85000012003B0FB
:102B5000BDE8F083012084F85100002084F8500083
:102B6000032003B0BDE8F08340F21400C2F200007D
:102B7000006849F68171C1F25E61A0FB0101480D58
:102B80004FF47A71484302906068B0F5827F21D19A
:102B90002046802100224346CDF8009001F05AFDE6
:102BA0000028CAD1A06838B9002001902068C16807
:102BB0000191806801900198012084F85100002063
:102BC00084F85000606D002818BF012003B0BDE8F4
:102BD000F08300BF02980028E4D0029801380290E8
:102BE000206880680006DDD502980028DAD00298B7
:102BF00001380290206880680006D3D5029800282A
:102C0000D0D0029801380290206880680006C9D5AB
:102C100002980028C6D00298013802902068806887
:102C20000006D7D4BEE700007047000070470000E0
:102C3000002804BF0120704710B5044690F83D00FD
:102C400028B9002084F83C00204600F01FF802203C
:102C500084F83D002068211D01F024FE012084F845
:102C6000460084F83E0084F83F0084F8400084F871
:102C7000410084F8420084F8430084F8440084F85A
:102C8000450084F83D00002010BD000070470000A2
:102C900090F83D1001291CBF01207047022180F8E7
:102CA0003D10006841F2FF72C168C4F20002904218
:102CB00041F00101C1600DDC40F2FF71C4F200017E
:102CC000884215DCB0F1804F2AD040F20041C4F2B6
:102CD000000123E040F2FF31C4F20101884213DC1D
:102CE00041F60001C4F20001884219D0002113E02E
:102CF00040F60001C4F20001884211D040F60041C4
:102D0000C4F200010AE000BF44F20001C4F2010174
:102D1000884205D040F20041C4F20101884206D148
:102D2000816801F00701062904BF0020704701688F
:102D300041F0010101600020704700007047000071
:102D400070B504460068C5680669B10716D515F068
:102D5000020113D06FF00201016101212177806926
:102D6000800703D02046FFF7E9FF05E0204600F08A
:102D70008FF8204600F08EF800202077700719D5D4
:102D800015F0040016D020686FF0040101610221E3
:102D90002177806910F4407F04D02046FFF7CEFFF2
:102DA00006E000BF204600F073F8204600F072F8FD
:102DB00000202077300717D515F0080014D02068C0
:102DC0006FF00801016104212177C069800703D0F9
:102DD0002046FFF7B3FF05E0204600F059F82046F3
:102DE00000F058F800202077F00619D515F01000F3
:102DF00016D020686FF01001016108212177C069A9
:102E000010F4407F04D02046FFF798FF06E000BF93
:102E1000204600F03DF8204600F03CF800202077E6
:102E2000F00718BF15F0010002D1300609D412E0F6
:102E300020686FF001010161204600F02DF8300696
:102E400009D515F0800006D020686FF0800101617F
:102E50002046FFF7E9FE700609D515F0400006D0C0
:102E600020686FF040010161204600F01FF8B006B5
:102E700058BF70BD15F0200008D021686FF0200207
:102E800020460A61BDE87040FFF7D0BE70BD00006B
:102E90007047000070470000006840F20041C4F233
:102EA0000001884218BF7047FFF786B870470000DE
:102EB00040F6F402C2F20002904218BF70472DE9BA
:102EC000F04F88B0D06B03681A681F68120327F0B0
:102ED00001071F601F6840F29802C2F2000231D45D
:102EE00047F400271F60242712295F6040F0A48068
:102EF00002F12501079102F12401069102F123015B
:102F0000059102F12201049102F12101029102F1E5
:102F10001A01039102F11901019102F1180102F164
:102F2000200B02F11F0A02F11E0502F11D0E02F133
:102F30001C0802F11B09009102F1170402F1160CA2
:102F40002FE000BF27F400271F60242712295F60AD
:102F500072D102F13701079102F13601069102F1B7
:102F60003501059102F13401049102F1330102911E
:102F700002F12C01039102F12B0102F1320B02F15B
:102F8000310A02F1300502F12F0E02F12E0802F192
:102F90002D09019102F12A0102F1290402F1280C04
:102FA000009199F800609EF80070C6F301119172CB
:102FB00098F80010B309D37241EA07212B789AF8E8
:102FC0000070918143EA0721029F9BF800303F780F
:102FD000D18143EA0721049B11821B7805999374E0
:102FE000069B079F09781B783F78D17443EA072135
:102FF0009CF800302778918267F30A23A3F580615B
:10300000009B1180F9081B78019F63F34A113F78F8
:10301000A1F580615180B900039F41EA93113F7887
:10302000036867F38A21A1F580619180790866F3CE
:10303000CA11A1F58061D180186840F001001860C4
:1030400008B0BDE8F04F704770470000B0B582B0DF
:10305000044600680168C368426901F02F05202D0D
:1030600003F0200506D12DB1204602B0BDE8B040E6
:1030700001F03EBE5FEA017C1EBF02F0010E03F4C8
:10308000907212EB0E0243D1226BCD0618D5012AA5
:1030900016D113F0100213D00021019101680191A3
:1030A000416801910199406940063BD4A08DE18DB2
:1030B000E28D002A18BF884240F0F28102B0B0BD14
:1030C0000A0640F1E78013F0800200F0E38094F8F4
:1030D00041102129F2D1A168B1F5805F03D12169A6
:1030E000002900F06382216A4A1C2262097841604B
:1030F000E18C01390A04E184E0D1C16821F080014A
:10310000C160C16841F04001C16002B0B0BD00BF04
:10311000CA0718BF13F4807240F0D0804A0700F14C
:10312000D380D8E0E06B016849688AB2002AC5D034
:10313000A38D9A42C2D2E185C069B0F5807F00F0CC
:103140009D80206850E8030F216820F4807041E8DA
:103150000302DAB1206850E8030F216820F4807080
:1031600041E8030292B1206850E8030F216820F47F
:10317000807041E803024AB1206850E8030F2168DB
:1031800020F4807041E80302002ADAD1206850E878
:10319000050F216820F0010041E80502BAB320685C
:1031A00050E8050F216820F0010041E8050272B3E4
:1031B000206850E8050F216820F0010041E8050271
:1031C0002AB3206850E8050F216820F0010041E88B
:1031D0000502002ADAD11AE0206850E8050F2168BC
:1031E00020F0400041E80502DAB1206850E8050F00
:1031F000216820F0400041E8050292B1206850E8C3
:10320000050F216820F0400041E805024AB120681E
:1032100050E8050F216820F0400041E80502002A2F
:10322000DAD1202084F8420000202063206850E892
:10323000030F216820F0100041E80302DAB1206892
:1032400050E8030F216820F0100041E8030292B11A
:10325000206850E8030F216820F0100041E80302C5
:103260004AB1206850E8030F216820F0100041E8BF
:103270000302002ADAD1E06BFEF768FB02206063EC
:10328000A08DE18D401A81B2204602B0BDE8B04069
:10329000FFF70EBE49067FF511AF13F040013FF472
:1032A0000DAFC16821F04001C1602021204684F8A3
:1032B000411002B0BDE8B04000F0C8BC626C42F002
:1032C000010262644A0706D5BEF1000F03D0626CAA
:1032D00042F0020262648A0706D5BEF1000F03D0F5
:1032E000626C42F004026264BCF1000F06D55EEA33
:1032F000050203D0626C42F008026264626C002A2C
:103300003FF4DCAE890604D51DB1204601F0F0FC87
:1033100020684069616C00F0400001F0080140182D
:1033200000F0B680206850E8030F216820F4907008
:1033300041E80302BAB3206850E8030F216820F483
:10334000907041E8030272B3206850E8030F2168CF
:1033500020F4907041E803022AB3206850E8030F7C
:10336000216820F4907041E80302002ADAD11AE0C3
:10337000206850E8050F216820F0010041E80502AF
:10338000DAB1206850E8050F216820F0010041E81B
:10339000050292B1206850E8050F216820F0010075
:1033A00041E805024AB1206850E8050F216820F085
:1033B000010041E80502002ADAD1206B012824D15E
:1033C000206850E8030F216820F0100041E8030254
:1033D000DAB1206850E8030F216820F0100041E8BE
:1033E000030292B1206850E8030F216820F010001A
:1033F00041E803024AB1206850E8030F216820F039
:10340000100041E80302002ADAD1202084F84200AB
:103410000020206320684069400640F1C180206898
:1034200050E8050F216820F0400041E80502DAB1BC
:10343000206850E8050F216820F0400041E80502AF
:1034400092B1206850E8050F216820F0400041E863
:1034500005024AB1206850E8050F216820F04000BD
:1034600041E80502002ADAD1E06B002800F09880DC
:1034700044F6F111C0F600010165FEF7AFFA00282D
:103480003FF41CAEE06B016D02B0BDE8B0400847F0
:103490002046FFF7D9FD0020606402B0B0BD00BF38
:1034A000401A00BF216851E8031F226821F490717F
:1034B00042E80313BBB3216851E8031F226821F4DB
:1034C000907142E8031373B3216851E8031F226827
:1034D00021F4907142E803132BB3216851E8031FD4
:1034E000226821F4907142E80313002BDAD11AE02C
:1034F000216851E8051F226821F0010142E8051307
:10350000DBB1216851E8051F226821F0010142E882
:10351000051393B1216851E8051F226821F00101CC
:1035200042E805134BB1216851E8051F226821F0DC
:10353000010142E80513002BDAD1202184F8421062
:1035400000212163216851E8031F226821F0100146
:1035500042E80313DBB1216851E8031F226821F020
:10356000100142E8031393B1216851E8031F226858
:1035700021F0100142E803134BB1216851E8031F09
:10358000226821F0100142E80313002BDAD1022255
:1035900081B22046626302B0BDE8B040FFF788BC4C
:1035A000204602B0BDE8B040FFF74EBD216A31F8B9
:1035B000022B6FF35F224260216299E5002804BF6D
:1035C0000120704710B5044690F8410028B900204A
:1035D00084F84000204600F021F8242084F84100BF
:1035E0002068C16821F40051C160204601F000FC50
:1035F0002068016921F490410161416921F02A01AB
:103600004161C16841F40051C16000202021606423
:1036100084F8411084F84210606310BD2DE9F04732
:1036200086B00446006844F6FF71C4F20001884287
:103630004FF000010591CDE90311CDE901116DDDD8
:1036400045F20001C4F20001884200F0E98041F235
:103650000001C4F20101884200F0268141F20041DC
:10366000C4F20101884240F0A481002643F63000F4
:103670000096C4F20200416941F0200141614169B4
:1036800001F02001009100990096016841F00401C9
:103690000160006801A900F0040000900098C020BB
:1036A00001900220CDE90206032004900820059035
:1036B00040F60000C4F20200FEF79AFB46F240001A
:1036C000C4F2020040F2D46500F57A70C2F200053F
:1036D0004FF0206185E843004FF440304FF48062A2
:1036E0004FF48073C5E908062846C5E90362C5E9B9
:1036F0000566EB61FEF764FA002818BFFDF7BAFC17
:10370000472005210022E563AC63FEF711FD472049
:10371000FEF7FCFC06B0BDE8F08700BF44F20041B4
:10372000C4F20001884200F0198144F60041C4F25D
:103730000001884240F03D81002643F630000096AB
:10374000C4F20200016946F2400841F4002101611F
:103750000169C4F2020801F4002100910099009669
:10376000016841F004010160006801A900F0040053
:10377000009000984FF4406001900220CDE90206CD
:10378000032004900820059040F60000C4F20200D7
:10379000FEF72EFB40F2B455C2F200054FF0006A6E
:1037A0004FF480694FF440372846C5E9008AC5E9DF
:1037B0000266C5E90496C5E90666C5E90876FEF71E
:1037C000FFF9002818BFFDF755FCE563AC6340F234
:1037D000146508F13000C2F200054021C5E9000A75
:1037E00005F108004FF4807280E842022846C5E9DE
:1037F0000566EA61C5E90876FEF7E2F9002818BF18
:10380000FDF738FC342004210022A563AC63FEF7E9
:103810008FFC3420FEF77AFC06B0BDE8F08700BFCD
:10382000002643F630000096C4F20200016940F61B
:10383000000441F4801101610169C4F2020401F441
:103840008011009100990096016801AD41F00401DA
:10385000016001684FF0020801F004010091009935
:10386000009601684FF0030941F00801016000680B
:10387000082700F00800009000984FF48050019055
:1038800020462946CDE90286CDF810900597FEF72F
:10389000AFFA0420CDE90108CDE90369059704F5E5
:1038A0008060294683E000BF002643F63000009682
:1038B000C4F20200416941F010014161416901F027
:1038C0001001009100990096016841F0010101602A
:1038D000006801A900F00100009000984FF4C0605A
:1038E00001900220CDE902060320049007200590F4
:1038F00040F60000C4F20200A0F50060FEF778FA7E
:1039000046F24000C4F2020040F2746500F58060A7
:10391000C2F200054FF0006185E843004FF44030EB
:103920004FF48062C5E908062846C5E90362C5E987
:103930000566EE61FEF744F9002818BFFDF79AFB13
:10394000252004210022E563AC63FEF7F1FB25206E
:10395000FEF7DCFB06B0BDE8F08700BF002043F6B1
:1039600030010090C4F202010A6942F400320A6197
:103970000A6902F400320092009A00900A6842F04C
:1039800008020A60096801F00801009100996021AD
:1039900001910221CDE90210032004900720059037
:1039A00040F60000C4F2020000F5806001A9FEF7B5
:1039B0001FFA06B0BDE8F08770B582B0044690F8F3
:1039C000420020280AD113460A4600294FF0010080
:1039D00018BF002B06D102B070BD00BF022002B09C
:1039E00070BD00BF002622202663A262A385666404
:1039F00084F84200E06B44F6793C44F6D9452168EE
:103A0000C0F6000CC0F60005C0E90FC544F6FD1570
:103A1000C0F600050431C0E91356FEF783F901969C
:103A2000206801680191406801900198206928B3DD
:103A3000206850E8030F216840F4807041E80302D9
:103A4000E2B1206850E8030F216840F4807041E83B
:103A500003029AB1206850E8030F216840F4807097
:103A600041E8030252B1206850E8030F216840F496
:103A7000807041E80302002ADAD100BF206850E8D4
:103A8000050F216840F0010041E80502BAB3206843
:103A900050E8050F216840F0010041E8050272B3CB
:103AA000206850E8050F216840F0010041E8050258
:103AB0002AB3206850E8050F216840F0010041E872
:103AC0000502002ADAD11AE0206850E8050F2168C3
:103AD00040F0400041E80502DAB1206850E8050FE7
:103AE000216840F0400041E8050292B1206850E8AA
:103AF000050F216840F0400041E805024AB1206806
:103B000050E8050F216840F0400041E80502002A16
:103B1000DAD1002002B070BD006844F60041C4F262
:103B20000001884218BF704780B540F2241E002073
:103B3000C2F2000E03E000BF053014285AD00EEB8D
:103B400000010A4612F8163FFF2B0BD1CB7FFE2B4C
:103B500008D1B2F808C013685268AEF808C0CEE9C0
:103B6000003200BF0A4612F8173FFF2B0CD191F824
:103B70002030FE2B08D1B2F808C013685268AEF8A6
:103B800008C0CEE9003200BF0A4612F8183FFF2BEA
:103B90000CD191F82130FE2B08D1B2F808C013687F
:103BA0005268AEF808C0CEE9003200BF0A4612F8EB
:103BB000193FFF2B0CD191F82230FE2B08D1B2F81F
:103BC00008C013685268AEF808C0CEE9003200BFE2
:103BD0000A4612F81A3FFF2BAED191F82310FE29A6
:103BE000AAD1118913685268AEF80810CEE90032E4
:103BF000A2E700BF9EF80000BEF801108EF80A0090
:103C000008BABEF80310000CAEF80C0008BABEF8F3
:103C10000510000CAEF80E0008BA9EF809C0000CA2
:103C2000BEF80710AEF8100040F66400AEF81210AF
:103C30000EF11601C2F2000014228EF814C0BDE885
:103C40008040FFF7B9BE00007047000070470000D9
:103C5000FEE7000000F002F8FCE7000040F63C142C
:103C6000C2F20004B7EE008ADFEDBC0A9FEDBC1A79
:103C70002046B0EE480A01F0ABFB40F2AC474DF2F3
:103C80004E1040F2001540F23C2640F218089FED1D
:103C9000B5AA9FEDB5BA9FEDB5CA9FEDB5DA9FED18
:103CA000B6EA9FEDB4FAC2F20007C3F61140C2F2C1
:103CB0000005C2F20006B6EE009AC2F200084FF00C
:103CC00000094FF0010AFFEE008A386407E000BFE8
:103CD00030EE080A85ED020A012001F0DBFC2846DF
:103CE000FDF7FCF8304685ED010A84ED020AFCF789
:103CF000E5FB06F10C0090EC030AD6EC031A07F181
:103D0000100080EC060A05F10C00C0EC031A05F166
:103D1000180080EC030A204601F074FB204601F0F5
:103D200093FB204601F072FB204600F039FC94ED35
:103D30000E2A94ED0C0A94ED0D1A94ED0F3A22EE32
:103D4000427A37EE094A63EE430A60EE031A61EEE7
:103D5000022AD8ED013AD8ED004A30EE845A32EE0C
:103D6000A14A24EE236A65EE245AD8ED026A61EE78
:103D7000037A60EE029A72EEE11A61EE012A75EEA4
:103D8000865A37EEE96A79EE622A66EE26AA70EE66
:103D9000A20A7AEEA55A60EEA3AA61EEA4BA7BEE5F
:103DA000AAAA60EE01BA62EE03CA77EEA97A7CEEA7
:103DB000EB9A69EEA33A67EEA44A37EE227A74EEE4
:103DC000A33A67EE262A7CEEABDA72EEA32AD7ED91
:103DD000073A6DEEA6EA75EEA54A7EEEAAAA73EE44
:103DE000E43AD7ED084A7AEEAA5A74EEE54AD7EDDE
:103DF000095A72EEA22AD5ED016A75EEE22AD7EDD4
:103E0000105AD7ED0AAAD7ED0BBAD7ED0CCA63EE5C
:103E1000A63A64EEA64A62EEA62A76EEA56A65EE9A
:103E2000AAAA65EEABBA65EEAC5AC3EEA63ACAEEE4
:103E3000A6AAC4EEA64ACBEEA6BAC2EEA62AC5EE44
:103E4000A65A87ED000A87ED011A87ED022A87ED51
:103E5000033A33EEAA0A25EE005A34EEAB1A21EEED
:103E6000813A32EEA52A35EE033A27EE825A35EE34
:103E7000033A20EE815A24EE004A87ED0B1A2DEE0C
:103E8000811A87ED0A0A26EE000A30EE010A27EEB3
:103E9000021A34EE054A29EE825A31EE000A33EE58
:103EA000031A35EE044A87ED0D1AB0EEC11AB4EECE
:103EB0004A1A34EE041A87ED0E1A30EE000AB0EEFC
:103EC000C11AF1EE10FA87ED0F0AB4EE4A1AB0EEFD
:103ED000C00A87ED0C2AB8BFC7F83490F1EE10FA8B
:103EE000B4EE4B0AB8BFC7F83890F1EE10FAB8BF7D
:103EF000C7F83C9095ED020AB4EE4C0AF1EE10FAC8
:103F00007FF7E6AE94ED1B0A97ED201AD4E919105D
:103F100030EE412AB4EE4D2AF1EE10FA87F890A067
:103F2000C7E91C1087ED1E0A04DD97ED211A31EE5A
:103F3000281A08E097ED211AB4EE4F2AF1EE10FA94
:103F400003DA31EE081A87ED211A21EE0E1A31EE4E
:103F5000001A87ED1F1A87ED200ABDE60000000059
:103F60006F12833A0AD7A33C0AD7233D00803B4512
:103F7000DA0F4940DA0F49C0560EC94080B540F209
:103F8000405046F20041C2F20000C4F20001032298
:103F9000002380E80E0000F10C014FF4102C4FF4C8
:103FA000001E81E8085083618383FDF70BFB002826
:103FB00008BF80BDBDE88040FDF75CB880B540F229
:103FC000685046F60001C2F20000C4F2000103226C
:103FD000002380E80E0000F10C014FF4102C4FF488
:103FE000001E81E8085083618383FDF7EBFA002807
:103FF00008BF80BDBDE88040FDF73CB880B582B009
:10400000002043F630010190C4F202010A6842F434
:1040100080020A600A6802F480020192019A00900C
:104020000868002240F4001008600868052100F4C8
:104030000010009000980D20FEF77AF80D20FEF792
:1040400065F80F2005210022FEF772F80F20FEF719
:104050005DF8392005210022FEF76AF83920FEF7C5
:1040600055F83A2005210022FEF762F83A2002B006
:10407000BDE88040FEF74AB870B59CB025480DF108
:10408000580E159023A000F1040C9CE81E108069C6
:104090008EE81E101B9015A8002101F009FB40F2CC
:1040A0008806C2F200062249306021A0051D0E914B
:1040B0003ECD80690DF13C0C8CE83E0014900EA8BA
:1040C000002101F0F5FA2149706020A0051D07913B
:1040D0002ECDD0E905400DF1200C8CE82E00CDE965
:1040E0000C4007A8002101F0E3FA1F49B0601EA0B0
:1040F000051D00912ECDD0E905400DF1040C8CE892
:104100002E00CDE905406846002101F0D1FAF060AB
:104110001CB070BD356C0008A54700080000000009
:10412000000000008000000000000000000000000F
:10413000216C0008553C000803000000000000004E
:10414000000200000000000000000000146C0008E5
:10415000A151000801000000000000000002000062
:1041600000000000000000002A6C0008154F000845
:1041700001000000000000008000000000000000BE
:10418000000000002DE9F04786B0002743F630001C
:1041900005970097C4F20200016841F2000441F063
:1041A000100101600168C4F2020401F010010091E5
:1041B000009900970168002241F0800101600168C8
:1041C00001F08001009100990097016841F004011D
:1041D0000160016801F004010091009900970168F5
:1041E00041F002010160016801F0020100910099B3
:1041F0000097016841F008010160016801F00801C1
:10420000009100990097016841F001010160006888
:10421000042100F00100009000982046FDF7C0FE48
:104220002046182101224FF00109FDF7B9FEA4F53F
:104230000066304601210022FDF7B2FEA4F580653C
:1042400028464FF4206100224FF4206AFDF7A8FEB3
:104250001C200DF10408CDE9010920464146CDE9B5
:104260000377FDF7C5FD30464146CDE90199CDE91B
:104270000377FDF7BDFD28464146CDE901A9CDE90B
:104280000377FDF7B5FD06B0BDE8F087B0B540F2A5
:10429000347043F60001C2F20000C4F200014FF492
:1042A0008272002380E80E0000F10C014FF0020C36
:1042B0004FF0010E4FF40074382581E808500A21B0
:1042C000C0E90645C0E90833C0E90A31FEF774FACF
:1042D000002808BFB0BDBDE8B040FCF7CBBE000071
:1042E00080B540F6640044F60041C2F20000C4F21A
:1042F000000100234FF00C0C4FF4E13280E80E0077
:10430000C0E90333C0E905C3C361FFF757F90028CB
:1043100008BF80BDBDE88040FCF7ACBE80B540F66C
:10432000AC0045F20001C2F20000C4F2000100231B
:104330004FF00C0C4FF4E13280E80E00C0E903337B
:10434000C0E905C3C361FFF739F9002808BF80BD84
:10435000BDE88040FCF78EBE80B540F2D47041F2DB
:104360000001C2F20000C4F2010100234FF00C0C66
:104370004FF4E13280E80E00C0E90333C0E905C321
:10438000C361FFF71BF9002808BF80BDBDE880406E
:10439000FCF770BE80B540F61C0044F20041C2F24A
:1043A0000000C4F2000100234FF00C0C4FF4E13286
:1043B00080E80E00C0E90333C0E905C3C361FFF71D
:1043C000FDF8002808BF80BDBDE88040FCF752BE64
:1043D000B0B540F6F40041F20041C2F20000C4F270
:1043E000010148F2A0620C240025C0F201024FF442
:1043F00080534FF4005C4FF4806E80E80E50C0E9AB
:104400000545C561FFF7DAF8002808BFB0BDBDE873
:10441000B040FCF72FBE0000FEE70000FEE7000002
:1044200090ED004A90ED015A30EEC02A80ED0C0A62
:1044300022EE040A90ED0F4A90ED093A25EE025A59
:1044400035EE044A90ED061AB4EE434AF1EE10FA46
:10445000C0ED0B0A80ED062A80ED071A80ED0E0AEA
:1044600080ED0F4A06DCB1EE433AB4EE434AF1EE7A
:1044700010FA03DAB0EE434A80ED0F3A90ED023ABB
:1044800032EE412A90ED0A1A22EE032A30EE040A97
:1044900032EE000AB4EE410AF1EE10FA80ED102A75
:1044A00080ED0D0A07DCB1EE411AB4EE410AF1EEDF
:1044B00010FAA8BF7047B0EE410A80ED0D1A7047A0
:1044C0000A6802604A684260896880ED090A816072
:1044D0000021C0ED0A0AC0E90311C0E90511C0E9D5
:1044E0000711C0E90D11C0E90F117047000000006D
:1044F000EFF30980BFF36F8F154B1A681EF0100F92
:1045000008BF20ED108A20E9F04F10602DE9090066
:104510004FF0500080F31188BFF34F8FBFF36F8FC0
:1045200001F07AFD4FF0000080F31188BDE809002A
:1045300019680868B0E8F04F1EF0100F08BFB0EC23
:10454000108A80F30988BFF36F8F704700BF00BFE8
:104550005001002080B582B040F6F400C2F20000A5
:1045600001210163022141634FF0240C0168A0F88E
:104570002CC0C06B4A6940F2980342F040024A6185
:10458000CA68C2F2000342F01002CA60043103F1AB
:1045900016022833CDF800C0FDF79EF902B080BDA9
:1045A00090ED0C0A90ED0D1A90ED0E2A90ED0F3A59
:1045B00021EE014A22EE025A23EE036A21EE007A2E
:1045C00062EE000A23EE000A61EE021A21EE031ADF
:1045D00022EE032AB8EE003A25EE035AF7EE002A3F
:1045E00075EE223A26EE033A33EE236A80ED106A26
:1045F00031EEC06A31EE800A30EE000A36EE066A0D
:1046000080ED130A34EE040A80ED116A31EE206A5F
:1046100032EEC00A31EE601A33EE003A31EE011A82
:1046200080ED143A32EE473A80ED161A32EE071A50
:1046300036EE066A33EE033A31EE011A35EE000A21
:1046400080ED126A80ED153A80ED171A80ED180A98
:10465000704700002DE9F04381B0089C984615464C
:104660000E468146FDF7A2FC201A00EB0804FDF778
:104670009DFC40F21401C2F200010968C1F3CB3184
:1046800061430091D9F800108A683240921BB2FA57
:1046900082F25209AA423DD0074618F1010031D0FA
:1046A000FDF784FCC01BA04238D200980099002876
:1046B000A1F101010091D9F80010896808BF0446F2
:1046C00001EA0600801BB0FA80F04009A842E7D159
:1046D00020E000BF88683040801BB0FA80F04009BD
:1046E000A84217D088683040801BB0FA80F040099B
:1046F000A8420FD088683040801BB0FA80F0400993
:10470000A84207D088683040801BB0FA80F040098A
:10471000A842DFD1002001B0BDE8F083D9E9000153
:104720004268B1F5827F22F0E00242600BD1D9F8F5
:104730000810B1F5004F02D0B1F5806F03D10168C8
:1047400021F040010160D9F82810B1F5005F07D1D0
:10475000016821F400510160016841F400510160D9
:10476000012089F85100002089F85000032001B091
:10477000BDE8F08300000000000000000000000021
:10478000074B19680868B0E8F04F80F30988BFF359
:104790006F8F4FF0000080F31188704700BF00BF9B
:1047A00050010020012000F075FFFBE780B54FF0BD
:1047B000500080F31188BFF36F8FBFF34F8F01F06C
:1047C00093FD30B14EF60450CEF200004FF0805110
:1047D0000160002080F3118880BD0000B0B592B068
:1047E000002443F64000CDE90A44CDE9084405948D
:1047F000CDE90344CDE901440094C4F2020001680C
:10480000022541F080510160006800F08050009066
:10481000009847F200000094C4F20000016841F4DF
:1048200080410160006800F4804000900098012001
:1048300006904FF4803007904FF480000D900620D2
:104840000E90A820CDE90F050420119006A80C9524
:10485000FDF7DAFD10B172B6FEE700BF0F20CDE91B
:1048600001054FF4A05004904FF48050059001A82A
:1048700005210394FDF798FC10B172B6FEE700BF66
:1048800012B0B0BD4EF68850CEF20000016841F47F
:10489000700101607047000040F28C70C2F20000AD
:1048A000FEF74EBA10B540F6FF3E0368C4F2000EA4
:1048B00040F2004C7045C4F2010C27DCB0F1804F8F
:1048C00031D040F20042C4F2000290422BD040F6B8
:1048D0000002C4F20002904225D041F6FF72C4F2F9
:1048E0000002904229DC70453CDCB0F1804F5FD083
:1048F00040F20042C4F20002904259D040F6000259
:10490000C4F20002904253D056E000BF40F600428D
:10491000C4F20002904206D0604504D00022C4F2E6
:1049200001029042D9D14A6823F07003134341F643
:10493000FF72C4F200029042D5DD43F6FF72C4F26A
:104940000102904222DC42F20002C4F200029042D4
:104950002ED00022C4F20102904229D0604527D017
:104960002AE000BF40F60042C4F2000290421FD08D
:1049700041F60002C4F20002904219D041F6004212
:10498000C4F20002904213D016E000BF44F20002CD
:10499000C4F2010290420BD044F60002C4F20102BC
:1049A000904205D044F20042C4F20102904203D189
:1049B000CA6823F44073134323F080024B69D1F893
:1049C00000E08C681A430260C46240F48062C0F860
:1049D00028E0624504BF0969016301214161016961
:1049E000C90708BF10BD016921F00101016110BDB7
:1049F000806B0021C185C184FEF726BB806B0168F6
:104A00004A6990F84130212B2DD112F080022AD032
:104A10000021C184016851E8031F026821F0C00130
:104A200042E80313DBB1016851E8031F026821F07B
:104A3000C00142E8031393B1016851E8031F026803
:104A400021F0C00142E803134BB1016851E8031F94
:104A5000026821F0C00142E80313002BDAD12021C3
:104A600080F841100168496990F84220222A40F0FC
:104A70007D8011F0400179D00021C185016851E8A5
:104A8000031F026821F4907142E80313BBB301686D
:104A900051E8031F026821F4907142E8031373B3D5
:104AA000016851E8031F026821F4907142E8031382
:104AB0002BB3016851E8031F026821F4907142E8AA
:104AC0000313002BDAD11AE0016851E8051F0268D0
:104AD00021F0010142E80513DBB1016851E8051F2F
:104AE000026821F0010142E8051393B1016851E821
:104AF000051F026821F0010142E805134BB101686E
:104B000051E8051F026821F0010142E80513002B5E
:104B1000DAD1016B012924D1016851E8031F026831
:104B200021F0100142E80313DBB1016851E8031FD3
:104B3000026821F0100142E8031393B1016851E8C3
:104B4000031F026821F0100142E803134BB1016812
:104B500051E8031F026821F0100142E80313002B03
:104B6000DAD1202180F8421000210163416C41F02C
:104B700010014164FEF768BA0168806B0968C905D5
:104B800000F19F800021C185016851E8031F026880
:104B900021F4807142E80313E3B1016851E8031F77
:104BA000026821F4807142E803139BB1016851E867
:104BB000031F026821F4807142E8031353B10168B6
:104BC00051E8031F026821F4807142E80313002BAF
:104BD000DAD100BF016851E8051F026821F0010128
:104BE00042E80513BBB3016851E8051F026821F0D4
:104BF000010142E8051373B3016851E8051F02681B
:104C000021F0010142E805132BB3016851E8051FAB
:104C1000026821F0010142E80513002BDAD11AE005
:104C2000016851E8051F026821F0400142E80513C0
:104C3000DBB1016851E8051F026821F0400142E83C
:104C4000051393B1016851E8051F026821F0400186
:104C500042E805134BB1016851E8051F026821F0D5
:104C6000400142E80513002BDAD1202180F84210E0
:104C7000016B012925D100BF016851E8031F0268BB
:104C800021F0100142E80313DBB1016851E8031F72
:104C9000026821F0100142E8031393B1016851E862
:104CA000031F026821F0100142E803134BB10168B1
:104CB00051E8031F026821F0100142E80313002BA2
:104CC000DAD100214163016B012918BFFEF724BF2F
:104CD000818DFEF7EDB80000806B01214163016B0F
:104CE000012918BFFEF7B0BF818D4908FEF7E0B873
:104CF00081B090F84210222921D183680246B3F591
:104D0000805F09D152F8281F52F8183C002B63D05D
:104D100003685B680AE000BF52F8281F13B90369F3
:104D2000002BF5D003685B6803F07F030B701168FC
:104D300001311160C18D01390A04C18502D001B071
:104D4000704700BF0168CA6822F02002CA60CA68C2
:104D500022F48072CA604A6922F001024A6120216D
:104D600080F8421000214163026B012A3CD10163AB
:104D7000016851E8031F026821F0100142E80313A3
:104D8000DBB1016851E8031F026821F0100142E81D
:104D9000031393B1016851E8031F026821F0100169
:104DA00042E803134BB1016851E8031F026821F088
:104DB000100142E80313002BDAD101680A68D20619
:104DC00006D5002200920A68009249680091009975
:104DD000818D01B0FEF76CB8026852686FF35F22F4
:104DE00021F8022B8162A5E701B0FEF795BE000015
:104DF00010B504460068D4E902C22369016921F4B0
:104E0000405111430161626943EA0C01E3691143B6
:104E1000C268194349F20C639A431143C160416966
:104E2000A26921F4407141F20043114340F48062D1
:104E3000C4F201039A42416102D1FDF79BFA01E0FD
:104E4000FDF784FAE16963681922B1F5004FA0FB10
:104E5000020123D15A00DB0FFBF71CFA48F21F5165
:104E6000C5F2EB11A0FB01235A094FF69C73C0F663
:104E7000FF7303F1805302FB0300322303EBC000F6
:104E8000A0FB01014FF4F87000EA111000EB0210D2
:104E9000C1F3421108442168886010BD9A009B0F3D
:104EA000FBF7F8F948F21F51C5F2EB11A0FB012303
:104EB0005A094FF69C73C0F6FF7302FB03003223BE
:104EC00003EB0010A0FB0101F02000EA511000EB01
:104ED0000210C1F3431108442168886010BD00002E
:104EE00040F2D470C2F20000FEF7B0B840F6F40011
:104EF000C2F20000FEF7AAB840F22410C2F200008D
:104F000000F1160140F66400C2F200001422FEF720
:104F100053BD000000F002F8FCE7000070470000FD
:104F2000FEE7000070B5FBF7ABFA8020FBF70AFF45
:104F30005520FBF707FF5520FBF704FF40F218252B
:104F4000C2F200056870FBF791FA0120FCF73CFF04
:104F5000FBF796FA8020FBF7F5FE5520FBF7F2FEF3
:104F60005520FBF7EFFE6870FBF780FA0120FCF795
:104F70002BFFFBF785FA7E20FBF7E4FEB620FBF75C
:104F8000E1FEFBF773FA5020FCF71EFFFBF778FAFF
:104F90008020FBF7D7FE5520FBF7D4FE5520FBF70A
:104FA000D1FE6870FBF762FA0120FCF70DFFFBF7FA
:104FB00067FA8020FBF7C6FE5520FBF7C3FE55209D
:104FC000FBF7C0FE6870FBF751FA0120FCF7FCFE0E
:104FD00068781E281CBFFF2070BD46F641460020A1
:104FE000C0F60006A87004E00130C1B20629A8701E
:104FF00034D2FBF745FAA87800EB40003118305C5A
:105000004C78FBF79FFE2046FBF79CFEFBF72EFA41
:105010000120FCF7D9FEFBF733FAA87800EB40003B
:10502000305C40F08000FBF78DFE5520FBF78AFED8
:105030005520FBF787FE6870FBF718FA0120FCF794
:10504000C3FEA8786A7800EB400131444B789A425D
:10505000CAD089782A7811432970C5E7002070BD2D
:10506000F0B581B0FBF720FA8020FBF76BFE5520EE
:10507000FBF768FE40F21825C2F200056870FBF7E6
:1050800009FA0120FCF7A0FEFBF70EFA8020FBF7DF
:1050900059FE5520FBF756FE6870FBF7FBF901201F
:1050A000FCF792FEFBF700FA1420FBF74BFEB6204C
:1050B000FBF748FEFBF7EEF95020FCF785FEFBF707
:1050C000F3F98020FBF73EFE5520FBF73BFE6870AE
:1050D000FBF7E0F90120FCF777FEFBF7E5F980200C
:1050E000FBF730FE5520FBF72DFE6870FBF7D2F979
:1050F0000120FCF769FE68780F2849D146F653462F
:1051000046F641470020C0F60006C0F60007A8702A
:1051100005E000BF0130C1B20629A8703CD2FBF700
:10512000C3F9A87800EB40003118305C4C78FBF7ED
:1051300009FE2046FBF706FEFBF7ACF90120FCF761
:1051400043FEFBF7B1F9A87800EB4000305C40F07B
:105150008000FBF7F7FD5520FBF7F4FD6870FBF7C7
:1051600099F90120FCF730FEA878697800EB40023D
:10517000324452789142CDD00138C1B2490051FA3F
:1051800080F1394489782A7811432970C2E700BF39
:10519000FF2001B0F0BD00BF002001B0F0BD000055
:1051A00000F002F8FCE700002DE9F04F81B02DED92
:1051B000048B94B008AD281D2C21FBF7E3F840F6D2
:1051C000C0190020C2F200099FED7F8A9FED7F9AEF
:1051D000C4F2C00009F10C0B08900B900E901190D6
:1051E00058462946B0EE480AF0EE490A05F10C0689
:1051F00005F1180705F12404FFF762F909F17408B5
:1052000040463146B0EE480AF0EE490AFFF758F939
:1052100009F1DC0528463946B0EE480AF0EE490AA5
:10522000FFF74EF909F5A27630462146B0EE480A5E
:10523000F0EE490AFFF744F940F22E10C2F20000E6
:10524000017A40F280270229C2F200075CD0427A3C
:10525000022A59D001295FD1B0F9021046F26763E2
:10526000594307964E14B0F9042006EBD17649F65F
:105270009911B0F90600CFF6FF7151434A14584313
:1052800002EBD174411401EBD071301B084405913D
:10529000CDE9026401F087FB9FED490B53EC10ABA5
:1052A0005246049301F096FB01F04CFB08EE100A05
:1052B000C7F8AC01A019059E0690304401F073FBBD
:1052C000049C5246234601F085FB01F03BFBC7F8E6
:1052D000B001DDE90210401A304401F064FB52468F
:1052E000234601F077FB01F02DFBC7F8B4010698C7
:1052F000301A079E01F057FB5246234601F06AFB25
:1053000001F020FB05E000BF0020C7E96B00C7F8F3
:10531000B401C7F8B80101E097ED6B8AB9F9020052
:10532000F0EE480A00EE100AB8EEC00A5846FFF741
:1053300077F8B9F96A00D7ED6C0A00EE100AB8EEFA
:10534000C00A4046FFF76CF8B9F9D200D7ED6D0AF4
:1053500000EE100AB8EEC00A2846FFF761F8B9F966
:105360003A01D7ED6E0A00EE100AB8EEC00A3046D8
:10537000FFF756F899ED100A99ED2A1A99ED442A8B
:10538000BDEEC00A99ED5E3A10EE101ABDEEC10AEC
:1053900010EE102ABDEEC20A10EE103ABDEEC30A9E
:1053A00040F2405010EE107AC2F200000097FBF776
:1053B00011FD14B0BDEC048B01B0BDE8F08F00BF4F
:1053C00000000000000042400000000000401C46B9
:1053D0004FF07E51016345F2054180EC030AC0F6AF
:1053E000000145F2494245F20D4344F2A15C74309C
:1053F000C0F60002C0F60003C0F6000C80E80E10F4
:10540000704700000C3080EC060A704710B590ED34
:10541000160A044601F074F8B1EE401A94ED170A2A
:10542000D4ED180A84ED191A01F000F994ED131A5D
:10543000D4ED100A84ED1A0AB0EE410A01F0F6F834
:1054400084ED1B0A10BD00002DED048B90ED071AB2
:1054500090ED062A90ED084A21EE010A22EE023A6A
:1054600033EE000A24EE043A33EE000AB1EEC03AFD
:1054700090ED185AD0ED022AD0ED001AD0ED0A4A6C
:10548000D0ED033AF6EE005AD0F8801084EE030A0D
:1054900081EE031A82EE032A90ED174A90ED163A38
:1054A00024EE006A21EE057A37EE466A25EE025AAE
:1054B00020EE037A37EE457A90ED015A23EE013A59
:1054C00022EE044A74EE430A25EE063A90ED094AAC
:1054D00023EE223A33EE043A25EE074A24EE224A1E
:1054E00034EE244A25EE205AD0ED0B4A21EE866A8E
:1054F00025EE225A36EE036A35EE245A33EE866ADA
:1055000021EE877AD0ED043A61EEA00AD0ED051ABB
:1055100037EE047A70EE850A37EE237A70EEA10A30
:10552000D0ED0D1AD0ED0E3AD0ED0F4A62EEA52A5D
:1055300067EE235A61EEC66A76EEE55A64EEA06A1B
:1055400075EEE65AD0ED0C6A60EEA37A26EE868AF6
:1055500078EE277A24EE878A77EEC87A20EEA18A41
:1055600026EE879A39EE488A24EE869A65EEA25A8C
:1055700067EEA27A39EE088A76EEA55A71EEA77A1E
:1055800067EE211A66EEA06A76EEA11A68EE226A2C
:1055900073EEA66A63EE863A71EEE31A61EEA21A22
:1055A00067EEA72A65EEA53A74EEA11A73EEA22A59
:1055B00066EEA63A73EEA22A61EEA13A73EEA22A33
:1055C000F1EEE22A80ED062A80ED071A80ED080A46
:1055D00080ED093A80ED0A4A80ED0B5A80ED036AAE
:1055E00080ED047AC0ED050AC5EEA23AC7EEA24AE4
:1055F000C6EEA25A81EEA22AC0ED0C3AC0ED0D4AC9
:10560000C0ED0E5A80ED0F2ABDEC048B0847000058
:10561000FCF7E0FCFFF7E2F8FEF7B4FDFEF7EEFC66
:10562000FEF7ACFCFEF7CAFCFEF730FEFEF758FEB4
:10563000FEF774FEFEF7AEFEFEF7CAFEFEF78CFE26
:10564000FBF7A8FBFEF786FFFFF756FCA820FBF749
:10565000DDFC40F23470C2F200000021FBF740F89C
:1056600090B141F2000440F23475C4F20204C2F277
:10567000000500BF20460421FCF78AFC28460021D3
:10568000FBF72EF80028F5D1FEF7F6FC00F00AF83B
:10569000FEE7000080B5012898BF012000F0FEFB66
:1056A000002080BD80B500F049FC002080BD0000D6
:1056B000B0B584B043698E4693B1846984B10589DD
:1056C000D0E9001C026928B2843D18BFC51CCDE991
:1056D000005360467346029400F0CAFD04B0B0BDAA
:1056E0000589D0E90013028A28B2843D18BFC51C81
:1056F00003AC18467346CDE9005400F089FD0399C8
:10570000012818BF0021084604B0B0BD2DE9F041C2
:10571000044600F003FB40F25016C2F20006306966
:1057200040F60055013030613068C2F2000548B1E2
:105730007069002840D13068E16AC06A884298BF29
:10574000346039E034603069012835D1284600F0F2
:105750008BFA05F1140000F087FA05F1280000F03B
:1057600083FA05F13C0000F07FFA05F1500000F0EB
:105770007BFA05F1640000F077FA05F1780000F09B
:1057800073FA40F2F018C2F20008404600F06CFADA
:1057900008F11407384600F067FA06F1640000F0DB
:1057A00063FA06F13C0000F05FFA06F1500000F0E9
:1057B0005BFAC6F8308077637068B1680122013106
:1057C000B160E16A8A401043706001EB810005EB33
:1057D0008000211D00F08AFA00F0C4FA706988B1D7
:1057E0003068E16AC06A884228BFBDE8F0814EF6A1
:1057F0000450CEF200004FF080510160BFF34F8F94
:10580000BFF36F8FBDE8F08140F2501540F60056AF
:105810004EF60458C2F20005C2F20006CEF20008AD
:105820004FF0805703E000BF204600F0B3FAE8686D
:10583000D0B100F073FAA86CC468201D00F0F4F930
:10584000286901382861E8680138E86000F08AFAC0
:1058500094F851000228EAD00128E5D070B9206BF5
:1058600000F098FAE0E700BF30680228DFD3C8F8FC
:105870000070BFF34F8FBFF36F8FD8E74FF050002A
:1058800080F31188BFF36F8FBFF34F8FFEE70000E7
:105890002DE9F047DDE909878246386B089C00EB6B
:1058A000820004389946002920F0070656D008786F
:1058B00087F83400087800284BD0487887F83500FE
:1058C0004878002845D0887887F8360088780028FE
:1058D0003FD0C87887F83700C878D0B3087987F800
:1058E00038000879A8B3487987F83900487980B337
:1058F000887987F83A00887958B3C87987F83B00E7
:10590000C87930B3087A87F83C00087A08B3487A37
:1059100087F83D00487AE0B1887A87F83E00887AB7
:10592000B8B1C87A87F83F00C87A90B1087B87F889
:105930004000087B68B1487B87F84100487B40B154
:10594000887B87F84200887B00281CBFC87B87F8CB
:105950004300002087F8430003E000BF002087F8E1
:1059600034000025381D062C28BF0624FC62C7E938
:10597000114500F085F907F1180000F081F984F075
:105980000700B861304651464A463F617F62FD6478
:1059900087F8505000F036F9B8F1000F386018BFA2
:1059A000C8F80070BDE8F08708480068006880F318
:1059B00008884FF0000080F3148862B661B6BFF328
:1059C0004F8FBFF36F8F00DF00BF000008ED00E0D6
:1059D00081B00020009040F22400C2F20000006874
:1059E0004FF0500181F31188BFF36F8FBFF34F8FDA
:1059F000013007D0FEE700BF009830B9009820B909
:105A0000009810B900980028F6D001B07047000047
:105A100070B5044600F0F8FA40F2C81CC2F2000C5F
:105A2000DCF8040050B19CF80000002818BF4FF0CB
:105A300000404FF0000544BB83E000BF40F68C50AF
:105A4000C2F20000420700F5F04200F1070122F027
:105A5000070218BF21F007000021A2F10803CCE9DA
:105A60000601CCF8043042E90211DCF80420191ACE
:105A7000C0E9002101208CF800004FF00040CCE983
:105A80000211002C4FF000055BD0204059D124F0CA
:105A9000070000F11002600708BF04F10802DCF8FB
:105AA0000800511E81424CD2604650F818EFDEF8D3
:105AB000045095422BD2DEF80010B9B174464D68FF
:105AC000954217D20B68ABB15D68954216D2186843
:105AD000A0B14568954215D204689CB165689542AD
